:020000040800F2
:1000000050130020D5000008B1200008211E000870
:1000100000000000000000000000000000000000E0
:10002000000000000000000000000000772400082D
:100030000000000000000000752400082D250008C5
:100040000501000800000000050100080501000886
:100050000501000805010008050100080501000868
:100060000000000005010008050100080501000866
:100070000501000805010008050100080000000056
:10008000050100080000000000000000192600081B
:1000900000000000292600080501000805010008ED
:1000A0000000000005010008000000000501000834
:1000B000052C00080000000000000000C537000803
:1000C0000348854600F084F80048004739390008A5
:1000D000501300200C4880F308880C480168090E72
:1000E0000B4A914205D10B480B4901600B480C4962
:1000F00001600C4880470C480047FEE7FEE7FEE73A
:10010000FEE7FEE7FEE700005013002004000000B9
:100110001F00000018100240010000000000014014
:1001200000000000B5250008C100000830B50B46EE
:10013000014600202022012409E00D46D5409D42C1
:1001400005D31D469540491B254695404019154647
:10015000521E002DF1DC30BD01466139192900D84D
:100160002038704710B5044605E00B780370401C3A
:10017000002B00D0491C521EF7D2204610BDCAB237
:10018000401E4178401C8A4202D00029F9D100204B
:100190007047421C0178401C0029FBD1801A70472F
:1001A00010B5002200E0521C835C8C5CA34201D19C
:1001B000002BF8D1D8B2E1B2401A10BD03460A783C
:1001C0000270401C491C002AF9D1184670470000F3
:1001D000064C0125064E05E0E36807CC2B430C3C9A
:1001E00098471034B442F7D3FFF76EFF943D0008F0
:1001F000B43D000870B58C180578401C6B075B0F88
:1002000001D10378401C2A1106D10278401C03E07A
:1002100006780E70401C491C5B1EF9D12B0705D4D3
:100220000023521E0DD40B70491CFAE70378401CC2
:10023000CB1A921C03E01D780D70491C5B1C521EEA
:10024000F9D5A142D8D3002070BD000010B51748E1
:100250008EB01549016000243021846041607D2109
:10026000C9000461C16001F0ABFA012000030790EE
:1002700007A90E4801F0CAFA0C4801F072FC0B9471
:100280000BA90A480C9401F077FA60200090084806
:10029000002200880190029469460494034801F00A
:1002A000F8FB0EB010BD000000040040C4010020A7
:1002B0006801002000B587B000281BD00146104817
:1002C000FFF734FF0F49C860084601F04AFC602080
:1002D00000900D4869460088019000200290024677
:1002E0000490084801F0D5FB0021064801F068FCA5
:1002F00007B000BD0021034801F084FCF8E70000CE
:1003000040420F00C40100206801002010B501F038
:1003100011FEFFF7CFFF10BD0149088070470000B4
:1003200068010020002070470020704710B5084C7D
:100330000648FF2201320749606002F054FD064979
:10034000606802F046FD002010BD00002C0A00206D
:1003500080010020EA040020EA03002070B5064670
:100360000D46074802F00FFD002403E0305D03F066
:1003700005FB641C2868A042F8D8002070BD00006E
:100380002C0A002010B50A46044C0146606802F0B1
:100390002AFD606802F06CFD10BD000080010020A5
:1003A000FEE70000F8B500238DE001249C40A44640
:1003B00022407DD04C68022C01D0122C0CD1DC08DC
:1003C000A40027183C6A5D07ED0E0F26AE40B4432B
:1003D0000E69AE4026433E6205685E000324B440C9
:1003E0000F79A543BF07BF0FB7402F4307604D6884
:1003F000012D05D0022D03D0112D01D0122D0ED1CB
:100400008568CF68A543B7402F4387604768654636
:10041000AF430D79ED06ED0F9D403D434560C56846
:10042000A5438C68B4402C43C4604C68E40049D5B3
:10043000284CA56901263543A561A4699D0834406F
:100440000094254CAD002F19BC689D072E0F0F2579
:10045000B540AC430925ED06A84201D100250FE0C7
:100460001E4DA84201D101250AE01D4DA84201D12F
:10047000022505E01B4DA84201D1032500E005251A
:10048000B5402543BD60184C25684E689543F6037A
:1004900000D51543256065684E689543B60300D5C1
:1004A00015436560A5684E689543F60202D500E0E5
:1004B00008E01543A560E5684E689543B60200D58F
:1004C0001543E5605B1C0A681446DC4000D06CE70D
:1004D000F8BD000000100240000001400004004888
:1004E00000080048000C004800040140002A01D028
:1004F0008161704781627047014800687047000061
:100500001801002002480168491C01607047000082
:100510001801002010B5064801681022114301603F
:10052000002000F007F800F017F8002010BD0000D0
:100530000020024010B5044600F0F6FE7D21C900FF
:10054000FFF7F4FD01F0FAF800222146501E00F0FA
:100550002FF8002010BD000008B50E488169012267
:100560001143816180691040002200901146501FA4
:1005700000F01EF800221146901E00F019F800222B
:100580001146501E00F014F8034801681022114370
:10059000016008BD0010024000000140C106C90E04
:1005A00001208840014908607047000000E100E038
:1005B00010B501F07FFD10BD10B50C0606D549063B
:1005C000490E1C2461430818283004E01C246143B0
:1005D0000818FF30093099B2002A06D00122827231
:1005E000C180190C0181002010BD0022827281801F
:1005F000F9E71C224A43121810B5FF30FF300230D1
:10060000926BC06902F0C9FD10BD1C224A4312184A
:1006100010B5FF30FF32FF30013202309269C069FD
:1006200002F016FE10BD0000F0B54A06520E134649
:100630001C256A43CC091218002C01D0283201E095
:10064000FF32093204461370C909FF345170E13496
:10065000217A01293DD001212172957A494B002D43
:100660004949557837D0002D05681678AC465BD0DF
:10067000B600AD5B6F0404D5444F0D403D43674663
:10068000BD5305681678AC46B600AD5B6F0605D560
:100690003C4F0D4040373D436746BD5315780668D3
:1006A000AF00F55B0D4039490D43F553364F1178D6
:1006B00030373D40066889001D4375521178334A32
:1006C00000688900F13A15401D4345520020207210
:1006D000F0BD0220F0BD002D05681678AC4610D0A4
:1006E000B600AD5B6F0605D50D40264940310D4380
:1006F00061468D5305681078234A8100685A30326C
:100700000EE0B600AD5B6F0404D50D401F490D43EC
:1007100061468D53056810781C4A8100685AF13A89
:10072000104018436852D1E7B600AD5B6F0404D5A2
:10073000164F0D403D436746BD5305681678AC46DD
:10074000B600AD5B6F0605D50E4F0D4040373D43FB
:100750006746BD5315780768AE00BD5B0D4009497B
:1007600040310D43BD53094F1678F13F3D400168BC
:10077000B6001D438D531178034A8900006830325A
:10078000A1E70000808000008F8F000080C0000083
:10079000F0B54B06CA095B0E002A04D01C225A434E
:1007A0001218283204E01C224A431218FF32093280
:1007B0000024947013700346C909FF335170E1336C
:1007C000197A01291AD00121197251781A4C00297D
:1007D0001178066814D08D00715B4F0603D5214057
:1007E000164C21437153117800688A00124C815ACB
:1007F0003034214010246140202414E00220F0BD58
:100800008D00715B4F0403D521400D4C2143715382
:10081000117800688A000A4C815AF13C2140012479
:100820002403614064006140044C403C21438152F8
:1008300000201872F0BD00008F8F0000C080000003
:1008400080C000004906490E1C2251430818FF30A1
:100850000130008C80B27047F0B54D066D0E2E460B
:100860001C246543CF092C18002F01D0283401E047
:10087000FF3409342670C90961700146FF31E26016
:10088000E131E3708C46097A01290DD001226146DD
:100890000A72E2789349002A08D0012A20D0022A5D
:1008A0000DD0032A25D111E00220F0BD2378026883
:1008B0009B00D55A0D40FF35FF35023504E0237803
:1008C00002689B00D55A0D40D55212E02278036889
:1008D00092009D5A0D40032149026918995208E07F
:1008E000237802689B00D55A0D40012189026918BE
:1008F000D15226780768B5007B5B7B497B4A0B4069
:10090000134333437B53A57A002D53D02578784E7B
:100910000B400768AD0033437B53E38850265D08E6
:1009200003686D00F65AF6182378DF0001239B0256
:10093000FB18F552238950265D0803686D00F65AAE
:10094000F6182378DF005311FB18F5526378076817
:10095000002B237875D09D007B5B5E0403D5654E2C
:100960000B4033437B53237807689D007B5B5E0617
:1009700004D55E4E0B40403633437B5323780568E5
:100980009E00AB5B0B405B490B43AB53564E21784B
:10099000303633400568890013436B522178554C3B
:1009A00000688900F13C2340134343520020614614
:1009B0000872F0BD6378002BA3881FD05D08036820
:1009C0005026F65A6D00F6182378DF0001239B02AB
:1009D000FB18F552237807689D007B5B5E0604D503
:1009E0000B40424940310B437B53016820783E4C19
:1009F0008300C85A30342040202440E05D0803685A
:100A00005026F65A6D00F6182378DF003A4BFB1893
:100A1000F55203685025ED5A374EEB182578B61C71
:100A2000ED00AD195E19E3683E2B0BD9DD022D0CEC
:100A3000DB0601D16D1EADB2AB020125ED032B43E8
:100A400007E020E0DD032D0CDB0701D06D1CADB20B
:100A5000AB023380237807689D007B5B5E0403D57F
:100A60000B4024490B437B5301682078214C8300C1
:100A7000C85AF13C204001242403604064006040D7
:100A80001043C85292E79D007B5B5E0403D5194E6C
:100A90000B4033437B53237807689D007B5B5E06E6
:100AA00004D5124E0B40403633437B532378056800
:100AB0009E00AB5B0B400D4940310B43AB530D4ED9
:100AC0002178F13E334001263603734076007340AF
:100AD0000568890013436B522178034C8900006834
:100AE000303460E78F8900008F8F00008080000025
:100AF0008081000080C0000004040000F0B54906B9
:100B0000490E1C244C432418FF34093463612261CC
:100B10000022A26103466270FF332170E133197A2B
:100B2000012908D0012119726569E1688D4204D953
:100B30006D1A656103E00220F0BD29466261A57A65
:100B4000002D05D06578002D19D0012D37D05AE041
:100B500005685026765B76192578EF00324D7D19B1
:100B600076193E293ED9CD022D0CC90637D0A902EF
:100B70000125ED03294300E0A902318043E0056827
:100B80005026765B76192578EF00274D2D1F7D19AD
:100B900076193E290AD9CD022D0CCF0601D16D1E42
:100BA000ADB2AD020127FF033D4306E0CD032D0C9E
:100BB000CF0701D06D1CADB2AD02358009E00568EC
:100BC0005026765B76192578EF00174D2D1F7D197D
:100BD00071536578002DBBD0012D0AD013E06D1E36
:100BE000ADB2C4E7CD032D0CC907C5D06D1CADB2A5
:100BF000C2E705685026765B76192578EF000A4D26
:100C00002D1F7D197153217800688C00015B074D01
:100C1000294001252D0369406D006940044D294399
:100C200001531A720020F0BD060400008FBF0000BF
:100C300080800000F0B50246FF32E132137A012BCA
:100C40000BD001244F06CB097F0E1472002B06D067
:100C50001C237B431B18283306E00220F0BD1C2315
:100C60004B431B18FF3309339C701F70CE095E7015
:100C7000012424031025114B002F0BD04906C90D68
:100C8000002E10D004680E4E605A30406840184361
:100C9000605210E001680B4E0888304060406840A8
:100CA0001843088007E00568064E685A303E304019
:100CB00060401843685200201072F0BD8080000030
:100CC000BF8F0000BFBF0000F0B506464806400ECB
:100CD0001C2141438D19EB630021AA632964012182
:100CE000283537466970FF372870E137387A012890
:100CF00006D03972EC686869A04203D9001B03E092
:100D00000220F0BD044600206861A87A00280CD0BB
:100D1000297830688A00825C53064A4A6B7839D554
:100D2000002B12D0012B2CD032E0A3B2AA88296963
:100D3000306801F08CFB30685021095A0918287876
:100D4000C200414810180C526AE050231B5AC900D7
:100D500018183D4B1B1DC91841183E2C08D9E0023C
:100D6000000CE30601D1401E80B28002104306E071
:100D7000E003000CE20701D0401C80B28002088032
:100D800006E05022125A1018CA002F495118445236
:100D90002A8927E0002B02D0012B1BD021E0502311
:100DA0001B5A1818CB002849591841183E2C08D94D
:100DB000E002000CE30601D1401E80B28002104325
:100DC00006E0E003000CE20701D0401C80B2800284
:100DD000088006E05022125A1018CA001A49511809
:100DE0004452EA88A3B22969306801F030FB687880
:100DF000164A002802D001280AD011E0297830686C
:100E00008900435A13400F4AC0321343435207E04C
:100E10002878316880000B5A13400D4A13430B5257
:100E2000287831688200094B885A303318401023E3
:100E3000584020235840034B8033184388520020E9
:100E40003872F0BD00800000020400008F8F0000A7
:100E500080C0000070B50446006840308088C00B38
:100E600002D0204601F048F92068403081884905C9
:100E70000AD58188334A11408180204600F0DAF893
:100E80000021204600F000F92068403081884904A4
:100E900003D581882C4A11408180206840308188A8
:100EA000890403D58188294A114081802068403017
:100EB00081880425C904002910DA0188A94301802A
:100EC000BD202168000240310880204600F0BEF8B5
:100ED0002068403081881E4A11408180206840305F
:100EE0008188090517D581881A4A114081802068B8
:100EF0004030018808221143018020684030018879
:100F000029430180206840308088C043C00402D556
:100F1000204600F0E3F8206840308188890506D536
:100F200081880D4A11408180204600F0A5F8206894
:100F300040308188C90503D58188084A11408180E5
:100F400070BD0000FFFB0000FFBF0000FFDF0000DE
:100F5000FFEF0000FFF70000FFFD0000FFFE0000B4
:100F6000F8B500270446002807D02646FF36E136AC
:100F7000707A0025002802D005E00120F8BD357206
:100F8000204600F03BF80320707201210BE01C208A
:100F9000784302191046203041720772C5725563BA
:100FA00095637F1CD5636068B842F0D800200BE0E1
:100FB0001C2242431219FF32013255721072D5724F
:100FC00055619561401CD56162688242F0D8206805
:100FD00040300180206840300580206840308580A6
:100FE000206840300582BF20226800024032108015
:100FF0002034257171720020F8BD000008B500682A
:101000000A49884210D10A48C2690121C9050A4328
:10101000C261C06900220840009011461F20FFF7FE
:10102000C7FA1F20FFF7BAFA08BD0000005C0040B5
:101030000010024010B5C41DFF34FA340121E069EC
:1010400002F0EBF9E06902F0B0F910BD10B504460A
:101050008069002806D00748016906229143016192
:1010600001F06AFAFF34FF340234E06902F0C0F99B
:1010700010BD000000ED00E0FF3010B5FF30023081
:10108000C06902F0BBF910BD0246FF32E132137AAB
:10109000012B08D001231372002906D020300171E2
:1010A0000020107270470220704700688021403095
:1010B0008181F5E710B5872189000A580146FF3183
:1010C000ED31104602F0B5F910BD00684030018BDB
:1010D0000122D203114301830020704710B504465A
:1010E000FF30FF300230C06902F0E4F9A069002847
:1010F00004D00348016906221143016110BD0000BC
:1011000000ED00E0F8B505460068394CC00352D543
:10111000E0690026C00007D4E16920040143E161D1
:10112000E16901400126009132480168C90510D4E7
:101130000168821511430160FFF7DEF9074604E0FC
:10114000FFF7DAF9C01B642824D82A480068C005D4
:10115000F6D5206A03273F02384020D0696839401D
:1011600081421CD0206A226AB843012109040A4343
:101170002262226A8A4322622062C0070FD0FFF7F0
:10118000BBF9009008E0FFF7B7F90099411A1A4837
:10119000814201D90320F8BD206A8007F3D5206A77
:1011A0006968B84308432062002E04D0E169012039
:1011B00000078143E1612878C00705D0206BA9684A
:1011C00080088000084320632878800605D5206BBE
:1011D00010218843E968084320632868800305D507
:1011E000206B802188432969084320630020F8BDD3
:1011F000001002400070004088130000F8B505465A
:1012000044480E460068C007C00FB0420AD24148A9
:10121000016849084900314301600068C007C00FF8
:10122000B0425CD128783C4C800705D56068F0213D
:101230008843A968084360602878C0073FD0686881
:10124000012813D02168022813D08907002946DA23
:1012500061688908890001436160FFF74DF9696899
:10126000074601290DD0022917D024E021688903FF
:10127000ECE78901EAE7FFF73FF9C11B2748814204
:1012800017D860680007800F0128F4D117E0FFF736
:1012900033F9C11B214881420BD860680007800FD9
:1012A0000228F4D10BE0FFF727F9C11B1B4881424C
:1012B00001D90320F8BD60680007800FF3D11548FD
:1012C0000168C907C90FB1420BD901684908490033
:1012D000314301600068C007C00FB04201D0012057
:1012E000F8BD2878400706D56068072109028843C1
:1012F000E9680843606000F02DF86168084A090653
:10130000090F515CC840074908600020FFF712F937
:101310000020F8BD002002400010024088130000A9
:10132000DA3900081C0100200148006870470000FD
:101330001C0100200448054900684968044A490521
:10134000490F515CC84070471C010020001002404A
:10135000EA39000810B511A30FCB88B06C460FC452
:1013600012A30FCB0FC415494A680C201346034043
:101370001348042B0FD0082B0DD193021B0F6C4682
:10138000E45CC96A04AB0907090FD203595C920FE8
:10139000FEF7CCFE604308B010BD00000203040558
:1013A000060708090A0B0C0D0E0F101001020304AA
:1013B00005060708090A0B0C0D0E0F10001002405D
:1013C00000127A00FEB504460078D24DC00749D01D
:1013D00068680007800F012820D068680007800F28
:1013E000022804D16868C003800F022816D00120AB
:1013F00062680004012A18D08100002A01D0052A61
:1014000017D02A6882432A60286888432860606869
:1014100000281BD0FFF770F8064613E02868800309
:1014200020D56068002876D01CE029680143296037
:10143000EDE72A680A432A60F7E7FFF75DF8801BAB
:10144000642869D828688003F7D50BE0FFF754F8C3
:10145000064604E0FFF750F8801B6428F1D828689E
:101460008003F7D420780126800700283DDA6868D9
:101470000007800F13D068680007800F022804D18E
:101480006868C003800F012809D0E0680028286838
:101490001CD030432860FFF72FF807460BE0286880
:1014A00080070BD5E068012835D107E0FFF724F865
:1014B000C01B0228C5D828688007F7D52868F821FE
:1014C00088432169C900084328600EE040084000B5
:1014D0002860FFF711F8074604E0FFF70DF8C01B7E
:1014E0000228AED828688007F7D42078000723D5D3
:1014F000E0690028686A10D030436862FEF7FCFF9C
:10150000074604E0FEF7F8FFC01B022899D8686A76
:101510008007F7D510E0FAE0A4E0400840006862D8
:10152000FEF7EAFF074604E0FEF7E6FFC01B0228CD
:1015300087D8686A8007F7D42078042740070028F6
:1015400060DA00200190E869C00008D4E969B806B3
:101550000143E961E96901400120009101906E4871
:101560000168C90511D40168821511430160FEF7B5
:10157000C3FF009005E0FEF7BFFF0099401A642802
:1015800070D865480068C005F5D5A06801280AD064
:10159000002801D0052810D0286A400840002862A1
:1015A000286AB84301E0286A30432862A06800280E
:1015B00012D0FEF7A1FF00900AE0286A38432862A3
:1015C000F1E7FEF799FF0099411A5448814249D842
:1015D000286A8007F5D50DE0FEF78EFF009006E043
:1015E000FEF78AFF0099411A4C4881423AD8286A8E
:1015F0008007F5D40198002804D0E969012000078C
:101600008143E9612078C00635D5606901280CD096
:10161000401D686B23D038436863686B4008400006
:101620006863FEF769FF064622E0686B384368632B
:10163000686B30436863FEF75FFF064604E0FEF721
:101640005BFF801B02285BD8686B8007F7D5686B4F
:10165000F8218843A169C900084368630BE0B843D7
:101660006863F4E74CE0FEF747FF801B022847D889
:10167000686B8007F7D4206A002846D0696809079C
:10168000890F022943D0012636060228286805D092
:10169000B0432860FEF730FF044633E0B0432860D3
:1016A000FEF72AFF074604E0FEF726FFC01B0228CC
:1016B00026D828688001F7D4E86AE16A00090001A9
:1016C0000843E862616AA06A084369687B22D20322
:1016D000914308436860286830432860FEF70CFF98
:1016E000044604E0FEF708FF001B022808D828681B
:1016F0008001F7D509E0FEF7FFFE001B022801D9A3
:101700000320FEBD28688001F5D40020FEBD012025
:10171000FEBD000000100240007000408813000071
:10172000042204490428086902D0904308617047E4
:101730001043FBE700E000E070470000094910B5E6
:10174000401E884201D9012010BD074C6061032171
:10175000081F00F0AFFC0020A061072020610020DE
:1017600010BD0000FFFFFF0000E000E010B5FFF734
:10177000E3FF10BD7047704770B502462032137EFC
:10178000012B1BD00123137602245476046865686C
:101790007026B5436560046865680E68354365600A
:1017A0000468A5688026B543A56000688468496818
:1017B0000C43846053760020107670BD022070BD0B
:1017C00070B5040005D025462035687E002802D07B
:1017D00006E0012070BD00202876204600F00AF8BF
:1017E00002206876211D206800F026FF012068761F
:1017F000002070BD70470268D36801210B43D3609D
:10180000006802680A43026000207047F8B5054688
:1018100004462035287E012817D001272F76022084
:101820006876226890687726FF23B0431B029843AE
:1018300090600868502837D00EDC202857D006DC8E
:1018400000284ED0102840D14EE00220F8BD3028AC
:1018500050D0402839D13CE060282DD0702817D0D6
:1018600001221203801A0ED090422ED1CB684A6812
:101870008968206800F025FF2068816801229203B2
:101880001143816021E020688168C908C900F8E738
:10189000CB684A688968206800F013FF216888686F
:1018A000B0433043886010E0CA684968206800F09F
:1018B000FDFF5021206806E0CA684968206801F0F1
:1018C00006F86021206800F007FF6F760020287678
:1018D000F8BDCA684968206800F0E8FF4021206828
:1018E000F1E700212068EEE710212068EBE72021D6
:1018F0002068E8E730212068E5E7704770B50446C6
:10190000006801690025C9438907002915DBC16802
:10191000C943890711D4E91E01610120207620689E
:1019200080698007204602D0FFF7E7FF04E000F05F
:10193000AFF8204600F042F9257620680169C943D6
:10194000490717D4C168C943490713D40421C943BF
:10195000016102202076206880698005800F204682
:1019600002D0FFF7CAFF04E000F092F8204600F032
:1019700025F9257620680169C943090716D4C1688D
:10198000C943090712D40821C94301610420207604
:101990002068C0698007204602D0FFF7AEFF04E050
:1019A00000F076F8204600F009F9257620680169F4
:1019B000C943C90617D4C168C943C90613D4102145
:1019C000C9430161082020762068C0698005800F26
:1019D000204602D0FFF791FF04E000F059F82046BE
:1019E00000F0ECF8257620680169C943C90708D1E1
:1019F000C168C943C90704D1891E0161204600F0AE
:101A000037F920680169C943090609D4C168C94387
:101A1000090605D48021C94301612046FFF7AAFECB
:101A200020680169C943490609D4C168C943490608
:101A300005D44021C9430161204600F02DF92068FA
:101A40000169C943890609D4C168C943890605D417
:101A50002021C94301612046FFF78DFE70BD0000C3
:101A600000B50068094985B088420DD1402000903A
:101A70000220019000200290039001200490092090
:101A80006946C006FEF78EFC05B000BD00040040AC
:101A90007047F8B5064604462036307E0D460128CC
:101AA0000DD001203076022070760427002A08D05D
:101AB000042A16D0082A2AD00C2A4DD137E0022059
:101AC000F8BD206800F010FE2068816908221143EB
:101AD000816120688169B9438161206881692A69CF
:101AE00012E0206800F03CFE206882690121C902F2
:101AF0000A438261206881690122920291438161D7
:101B0000206881692A6912021143816124E02068FA
:101B100000F060FE2068C26908210A43C2612068A3
:101B2000C169B943C1612068C1692A6912E02068AE
:101B300000F08CFE2068C1690122D2021143C1610C
:101B40002068C269012189028A43C2612068C16993
:101B50002A6912021143C16101207076002030769B
:101B6000F8BD70B5040005D025462035687E0028F4
:101B700002D006E0012070BD00202876204600F04B
:101B80000BF802206876211D206800F055FD012029
:101B90006876002070BD000008B5006805498842DD
:101BA00007D10548C26902210A43C261C0690840E1
:101BB000009008BD00040040001002407047000083
:101BC00010B504460068012200F070FD0A48216843
:101BD000814205D00948814202D00948814204D19E
:101BE000486C0122D2031043486420680168012236
:101BF00011430160002010BD002C01400044014051
:101C00000048014030B504460068002200F04EFD57
:101C1000144A134821689310814205D0124881422A
:101C200002D0124881420AD1086A104207D1086ADC
:101C3000184204D1486C0125ED03A843486420688C
:101C4000016A114206D1016A194203D101684908AB
:101C500049000160012020346076002030BD000082
:101C6000002C0140111100000044014000480140D7
:101C700010B5044600680649884201D100F0FCFB1B
:101C800004492068884201D100F00AF910BD000023
:101C900000200040004401407047704710B50446E2
:101CA0000068C169C90707D00168C90504D50121C9
:101CB0000162E06E0843E0662068C16902228B077A
:101CC0000421002B06DA8368DB0703D00262E06E92
:101CD0000843E0662068C3695B0706D58368DB07B5
:101CE00003D00162E06E1043E0662068C169090715
:101CF00007D58168C90704D008210162E06E084356
:101D0000E0662068C169890605D50068800602D5AD
:101D1000204600F06AFE2068C169090605D5006802
:101D2000000602D5204600F039FF2068C169490647
:101D300005D50068400602D5204600F049FEE06E59
:101D4000002807D020212046603041728172204651
:101D5000FFF7A3FF10BD70B5040005D02546603520
:101D6000687A002802D006E0012070BD00202872A9
:101D7000204600F027F8242068722068016849088E
:101D800049000160204600F071FE0128EDD0606A34
:101D9000002802D0204600F0ADFD206841680122F5
:101DA000D20291434160206881680822914381609A
:101DB00020680168012211430160204600F0FFFD08
:101DC00070BD000000B50068124987B088421ED17E
:101DD0001148C269012149040A43C261C06908402F
:101DE00005900C2000900220019001210320039017
:101DF0000291049109206946C006FEF7D3FA002239
:101E000011461C20FEF7D4FB1C20FEF7C7FB07B0D1
:101E100000BD0000004400400010024070477047C1
:101E2000FEE7000070B5194888B0426901218905B4
:101E30000A43426142690A400092426949110A43D9
:101E4000426142690A400092426949000A43426184
:101E500040690F4D0840009011200290002003902F
:101E600004460490E0004119898801912E5801A987
:101E70003046FEF797FA0198012281B23046FEF70C
:101E800035FB641C082CEDDB08B070BD001002406F
:101E900028010020014988807047000020010020AF
:101EA00010B510480022C1888388994202D2491C8B
:101EB000C18005E0C2800178642901D2491C01700B
:101EC000C178642902D2491CC17000E0C270C17897
:101ED0000278914201D2407800E0807800F010F85A
:101EE00010BD00002001002004494A788A70487023
:101EF0000020C880C87008707047000020010020D2
:101F0000F8B501250A4E074600242846B84301D0FB
:101F1000012200E00022E000811989883058FEF794
:101F2000E5FA6806050E641C082CEEDBF8BD00001F
:101F30002801002001461839672905D803494000C7
:101F400040184038008A704700207047143A000853
:101F500008B50F48C26981150A43C261C0690022F1
:101F60000840009011461320FEF722FB1320FEF7D5
:101F700015FB094807490160002230218260416059
:101F80007D21C9000261C160FFF71AFC08BD000095
:101F900000100240002000400002002008B50F4859
:101FA0008269012149040A43826180690022084054
:101FB000009011461520FEF7FBFA1520FEF7EEFA09
:101FC00008480749016000223021826041600A21EF
:101FD0000261C160FFF7F4FB08BD00000010024081
:101FE000004401403C02002010B5144914488AB056
:101FF000002412C00460446084600838FFF7B1FD1B
:10200000002800D0FEE7079407A90D480894FFF7C1
:10201000B3FB002800D0FEE76020009001940294FA
:102020000022694604940648FFF733FD002800D0DB
:10203000FEE70348FFF714FD0AB010BD000400409E
:10204000C401002010B50C480A4901604B21090267
:10205000416000218160C16001618161C1610C2228
:10206000016242614162FFF776FE002800D0FEE780
:1020700010BD0000004400407802002010B500228E
:102080000749084801F05EF80749064801F037FAA9
:102090000649044800F093FE024801F081FA10BDA1
:1020A000880100202C0A0020E000002070010020A0
:1020B000704700008307FF22DB0E9A408907090E54
:1020C000994000280BDA0007000F083883080848F9
:1020D0009B001818C36993430B43C361704783087F
:1020E00004489B001B181868904308431860704709
:1020F00000ED00E000E400E0F0B585B0044600200B
:10210000694688802646203678E19A8917073F0F6E
:1021100026D0B9000291425A9A80998809047DD547
:10212000BE490A400299425238461C2148430519CB
:10213000FF350935A87A0028206870D029788A00F0
:10214000825A52046CD55022125ACB00B44912184C
:102150005918515A8905890D00917DD0EA88BDE052
:102160009A89D20627D40188AE4A254611400180BB
:1021700020685021095A283508182978CA00A8492A
:102180005118405A8005800D2064A16B0818A06387
:1021900000212046FEF72DFA30790028B4D0686976
:1021A0000028B1D1307980210843216840318881ED
:1021B0000020307122E12546FF35028809359A80DA
:1021C0009B881B0519D5098A09182878C2009448EC
:1021D000001D1018085A294683059B0DAB61AA887B
:1021E000E431206800F024F920688C4A018811400D
:1021F00001802046FEF75EFF00E1694689880904F8
:10220000D8D58649864F0A40028020685021095A55
:102210003F1D09182878C000C01902E085E03DE0A4
:102220004FE0085A83059B0DAB6108D0AA88296945
:10223000206800F0FDF8A96928694018286100218C
:102240002046FEF7E2F9206801464030008A401837
:10225000C119E8683E2800E044E00AD9C202120C25
:10226000C00601D1521E92B290020122D203104345
:1022700006E0C203120CC00701D0521C92B29002B9
:1022800008802168684A08881040012212035040E3
:1022900052005040654A10430880AFE05021095A6F
:1022A0000A182978CB005E49091D5918515A890529
:1022B000890D009121D0AA882969009B00F0B8F807
:1022C0001BE05022CB00125A55491218091D59180B
:1022D000515A8905890D009104D02A892969009BEA
:1022E00000F0A6F8297820688A004E4B815A803386
:1022F00019404E4B403319438152A9690098081880
:10230000A861296900980A182A616B69002B03D01B
:10231000E9680098814204D929782046FEF775F9CA
:1023200003E029782046FEF7E9FB6846808800062E
:1023300064D51C204743206802993A4A415A3D1906
:102340001140029A28358152A87A0028206811D0BD
:1023500029788A00825C52061ED55022125AC90082
:1023600012182F480818105A83059B0DAB6124D012
:10237000EA881EE05021095A09182878C200284826
:102380001018085A83059B0DAB6121D0AA882969D2
:10239000206800F05CF81BE05022125AC9001218A5
:1023A0001F48001D0818105A83059B0DAB6104D00F
:1023B0002A892969206800F04AF828782268800074
:1023C000184B115A80331940174BF13319431152EE
:1023D00020685021095A09182878C200104810189E
:1023E000085A8005800DA86129690A182A616B695D
:1023F0002978002B20460DD0FEF766FC20680146A8
:1024000040318A886B469A81120400D57DE600200F
:1024100005B0F0BDFEF7EDF8F0E700008F0F00000B
:10242000020400000F8F00008FBF000080800000BA
:10243000101801225B1C92025B088018002B05D04B
:1024400002880A80801C891C5B1EF9D17047101815
:1024500001225B1C920210B55B088018002B08D08B
:102460004A780C78120222430280801C891C5B1E71
:10247000F6D110BD7047704770B5244CFF212088FD
:102480004B31884220D241002148405A21460988D8
:1024900005072D0F491C8AB22B0001F0ABF910156E
:1024A000090E3116162D2B15151515151515351583
:1024B0000005000EFFF718FD03E00005000EFDF714
:1024C00025FF2088401C208070BD0221615E4B1CCE
:1024D00004D000290BDD491E618070BD042D04D09D
:1024E000000964214843608070BD0009FBE70020BB
:1024F000C0436080228070BD0009FFF7CBFCE0E79D
:102500000009FDF709FFDCE70020DCE76A01002095
:10251000E43A000810B50348FFF76DF902490020BE
:10252000088010BD000200206A01002010B5FDF7F0
:10253000E9FFFFF71BF910BD30B595B001200390FE
:10254000102004900225C00209900095400100244B
:102550000A9008950B946846FEF734FF002800D0D7
:10256000FEE707200C900E9401210D950F940CA806
:10257000FEF744FE002800D0FEE701204004109042
:102580008020149010A8FEF7BDFD002800D0FEE7C3
:10259000FEF7CAFE7D21C900FDF7C8FDFFF7CEF8A2
:1025A0000420FFF7BDF800221146501EFEF700F888
:1025B00015B030BD15480168012211430160416822
:1025C000134A114041600168124A114001600168DC
:1025D000012292049143016041683F221204914319
:1025E0004160C16A09090901C162016BFF2294328D
:1025F00091430163016B802211430163416B4908E0
:1026000049004163002181607047000000100240D2
:102610000CB8FF08FFFFF6FE10B50248FFF76EF991
:1026200010BD00000002002010B50248FFF766F957
:1026300010BD00003C02002070B50268164B174D1B
:10264000984201D0A84204D1144670264A68B44387
:102650002243134C134E984208D0A84206D0124D84
:10266000A84203D0A04201D0B04204D103252D02DC
:10267000AA43CD682A4302608A68C2620A688262FD
:10268000984203D0A04201D0B04201D10969016350
:102690000121416170BD0000002C01400004004098
:1026A00000440140004801400020004010B50123D3
:1026B000046A8B409C430462036A8A4013430362AA
:1026C00010BD30B58468FF252D021B021343AC43B7
:1026D0000B432343836030BD826870239A430A43CF
:1026E00007210A4382607047F0B5026A520852001F
:1026F0000262056A436882697024A24392080C68EA
:1027000092001443022295438A68134E2A43114DC6
:10271000A84204D0B04202D0104FB84206D10827D8
:10272000BA43CF681743042297433A46A84204D0DD
:10273000B04202D0094DA84206D103252D02AB4379
:102740004D691D438B692B43436084614968416334
:102750000262F0BD002C01400044014000480140ED
:1027600070B5026A10239A430262046A4368826960
:1027700073252D02AA430D682D0215432022944390
:102780008A6812012243104CA04208D11446CA683C
:102790008026B443120122434024A24305E00B4C9F
:1027A000A04202D00A4CA04208D10324A402A343B1
:1027B0004C69A4001C438B699B00234343608561E3
:1027C00049688163026270BD002C014000440140F1
:1027D0000048014070B5026AFF2301339A43026248
:1027E000046A4368C2697025AA4392080D68920082
:1027F00015430122520294438A6812022243104C6C
:10280000A04207D1C414A243CC6824022243061577
:10281000B24305E00B4CA04202D00B4CA04208D1C1
:1028200003242403A3434C6924011C438B691B012B
:1028300023434360C5614968C163026270BD000003
:10284000002C0140004401400048014030B5026ABC
:1028500001231B039A430262056A4268C369732419
:102860002402A3430C6824021C4301235B039D4301
:102870008B681B032B430A4DA84205D0094DA84283
:1028800002D0094DA84205D10125AD03AA434D69E7
:10289000AD012A434260C46149680164036230BDEE
:1028A000002C0140004401400048014030B5036A5B
:1028B000046A6408640004628469F025AC43120170
:1028C00022430A24A3430B438261036230BD30B527
:1028D000036A1024A34303628469036A0F252D034E
:1028E0001203AC432243A024A3430901194382618C
:1028F000016230BD10B5818CC90707D001684A68F4
:1029000001235B049A43836A1A434A60818C8907D6
:1029100007D501684A6801231B049A43C36A1A4316
:102920004A60818C490707D501684A6801239B04E6
:102930009A43036B1A434A60818C090707D50168E3
:102940004A680123DB039A43436B1A434A60818C34
:10295000C90607D50268916801231B039943836B5D
:1029600019439160818C890607D501688A68012323
:102970005B039A43C36B1A438A60818C490612D564
:1029800003685A6801210905046C8A4322435A608E
:10299000026C8A4207D10268516803235B059943A0
:1029A000436C19435160818C090607D501684A6858
:1029B0000123DB04806C9A4302434A6010BD00216E
:1029C000C1662022603042728272017208467047EE
:1029D00010B501680A6840239A430A6020226921E1
:1029E0000A54FFF71CFA002010BD70B502464032B1
:1029F00003466033948B9D7A0168222D05D0886947
:102A0000082210438861022070BD012685683603C4
:102A1000B54202D10569002D0CD08D8C416D254049
:102A20004C1C44650D70518B491E0904090C5183DF
:102A300008D019E0898C456D21402980416D891CA1
:102A40004165F0E70268146820218C431460026835
:102A50001468CD00AC431460026894686408640094
:102A600094609972FFF7DAF9002070BDF8B504465A
:102A70002369A268E5691A43636910202B4300218A
:102A800025681A432B680E463E4F3B4013432B608C
:102A900023685A6803252D03AA43E5682A435A6030
:102AA000236AA26925681A43AB680B273F02BB4320
:102AB0001343AB60344A2568954210D1334A126BF8
:102AC0009207920F0ED0012A05D0022A05D0032AC0
:102AD00009D1022007E0042005E0082003E02C4A89
:102AE000954200D100200122E369D203934224D110
:102AF00000280CD002280DD0042813D0082817D0A5
:102B000001260A0912010807400F10432FE0FEF7C3
:102B100011FC09E061681F4A48088018FDF706FBB0
:102B200081B2EEE7FEF716FC616840004A08F4E760
:102B30006168012248081204EFE7002808D0022843
:102B400009D004280BD0082814D001263046F8BD3F
:102B5000FEF7F0FB05E061680F4A48080CE0FEF75D
:102B6000F9FB61684A088018FDF7E0FA80B2216835
:102B7000C860EBE7616848088018FDF7D7FA80B2B3
:102B8000E860E3E7F369FFEF00380140001002401E
:102B9000004400400024F40000127A006921095C1E
:102BA000212901D00220704702464032518A002973
:102BB00012D0012381681B03994202D101690029C7
:102BC00015D0C16C4B1CC364006809780185508A1C
:102BD000401E50820020704701680A6880239A4393
:102BE0000A6000680168402211430160F2E7C16C8D
:102BF00003680988C905C90D1985C16C891CC164A0
:102C0000E5E7000010B50248FFF748F810BD0000E6
:102C100078020020FF30FF3002308069002806D0A3
:102C2000FF300021FF30023041610846704702202A
:102C3000704770B5C21DFF32FA321546946900F034
:102C400041FBE11DFF31FA31C860A869002808D0B6
:102C50004868E969CA6883218900611890470020A3
:102C600070BD022070BD70B504460025812100F0C2
:102C70008BFA0121204600F087FA8221204600F0DD
:102C800083FAFF34FF340234A069002807D0E069DA
:102C900040688047A06900F090FD0020A0612846B0
:102CA00070BDFF3010B5FF301A300AC8002B0AD0B3
:102CB000CC1DFF34FA342078FF2804D09B6862785A
:102CC0009847FF202070002010BD00000A210180DD
:102CD00000487047080000204321018000487047E9
:102CE0005800002043210180004870471400002054
:102CF00043210180004870479C000020F8B504463D
:102D0000007C012600257602002830D040230222D4
:102D10008121204600F034FB40230222012120467D
:102D200000F02EFB082303228221204600F028FB1E
:102D30008720800000F042FDE11DFF31FA318861FB
:102D400000281CD00746C86900688047FF3700206C
:102D5000FF3702377861B861207C7A68002810D08C
:102D600040230121204600F017FB2846F8BD3346DA
:102D700002228121204600F003FB3346CDE70125E6
:102D8000F3E73346EDE710B54321C90009580029A0
:102D900013D0027C002A09D0FF31FF3102314A688A
:102DA0004023012100F0F8FA002010BDFF31FF316F
:102DB000023101235B024A68F3E7022010BD02469C
:102DC0000220002904D0FF32FF3202320020D161FC
:102DD0007047FF30FF3002308069FF30FF30023033
:102DE000416000207047FF30FF3002308069FF30C3
:102DF000FF300230026181600020704770B50C46E0
:102E0000C11D0546FF31FA31207860228E690240EB
:102E100022D0202A28D1E288002A16D0000607D521
:102E2000C96960788B6831469847E288314618E076
:102E3000F01DFF306178FA300170A1794170E288AD
:102E40003146284600F050F80EE0C96960788B687A
:102E500000222146984707E060780A2804D10349F8
:102E60000122284600F05CF8002070BD040000201C
:102E700010B54321C9000958002911D0FF31FF3195
:102E800002314A69002A01D0012010BD01224A61A5
:102E90000A8A93B28A68812100F014FB002010BDD9
:102EA000022010BD10B5852292001258526890473A
:102EB000002010BD134610B50A46002100F06CFA40
:102EC000002010BD134610B50A46002100F0FAFAA2
:102ED000002010BD10B50446802100F0D9FA002171
:102EE000204600F0D5FA10BD10B5FF230324F533BA
:102EF0001C50C31DF9339A60DA6013460A4600215C
:102F000000F04AFA002010BD10B5FF210522F5316E
:102F10000A5000231A46194600F03EFA002010BD60
:102F200010B5FF230224F5331C5082611346C261A1
:102F30000A46002100F0C6FA002010BD10B5FF219E
:102F40000422F5310A5000231A46194600F0BAFA55
:102F5000002010BD10B50A46024903A000F0D0F8C9
:102F6000004810BD500C002043444320436F6E6660
:102F7000696700001220088000487047A8010020FF
:102F800010B50A46024903A000F0BAF8004810BD87
:102F9000500C002043444320496E7465726661639F
:102FA000650000000420088000487047A40100204C
:102FB00010B50A46024903A000F0A2F8004810BD6F
:102FC000500C0020652E7061766C696E2E7369005E
:102FD00010B50A46024903A000F092F8004810BD5F
:102FE000500C002053544D33322056697274756171
:102FF0006C20436F6D506F727400000010B50A466C
:10300000024903A000F07CF8004810BD500C0020DD
:10301000303030303030303030303141000000005E
:10302000F8B50D4604464988FF300A0AFF300230E1
:10303000130000F0DFFB084905091649493E4649DF
:103040000069237C02682AE0217C0226406900296D
:1030500005D0C16A684688470146467040E0816AEB
:10306000F8E7C9B20B0000F0C5FB0604080F131700
:103070001E2F0069227C436802E00069227C83687D
:1030800069461046984712E00069227CC368F7E75A
:103090000069227C0369F3E70069237C4269694681
:1030A0001846904703E00069227C8369E8E70146FF
:1030B00016E0217C002907D14069416B68468847AA
:1030C000F5E7217C002904D029462046FFF702FFBE
:1030D000F8BD4069016B6846884707220146427087
:1030E000684600880028F3D0EA88002AF0D082429F
:1030F00000D90246684602802046FFF711FFF8BD5E
:1031000070B5002300281CD00446002502E06D1C89
:10311000EDB2641C2678002EF9D16C00A41C14803A
:10312000CC5403225B1CCA5400245B1C06E0CA5426
:103130005B1CDAB28C54521CD3B2401C0278002AB9
:10314000F5D170BD10B5002813D0C31DFF33FA337D
:103150005C69002C01D000245C61002900D0196159
:10316000FF210123FD310B54027000F0B3F8002061
:1031700010BD022010BDFF3010B5FF300230006AD4
:10318000FDF706FB002010BDFF3010B5FF30023008
:10319000006AFDF749FA002010BDFEB50446FF3075
:1031A000E51DE130FF35FA3513460190002908D0BE
:1031B00068694269002A49D00198007F032843D0FA
:1031C00044E02646FF3681362046716F14300229CE
:1031D00034D1C26881680092914207D9891A81600E
:1031E0008AB219462046FFF76DFE13E0406811468B
:1031F0000746FCF79BFF002913D10098874210D3A4
:10320000B06F87420DD2002211462046FFF75AFECA
:103210000020B06700231A461946204600F0BCF88B
:103220000CE06869C168002905D00198007F032877
:1032300001D1204688472046FFF766FE28780128FE
:1032400004D10020287001E0204690470020FEBDF8
:1032500070B50546FF35E1352B462033164604464A
:10326000002907D058698269002A29D0287F0328BD
:1032700024D025E0FF21F531E01D0959FD30032957
:103280001ED18268C1688A420BD9511A8160C06818
:10329000814200D301468AB231462046FFF70AFE3A
:1032A0000EE058690169002904D0287F032801D164
:1032B000204688472046FFF741FE01E02046904720
:1032C000002070BDFF3010B5FF300230006AFDF7FE
:1032D000B9FA10BD10B51E49C41DC861FF341D499F
:1032E000FA341D4821620860022208208A60486082
:1032F0000020C8608861C8610A6108620846FDF75D
:103300002FFE002801D0FDF74BF8002218231146AC
:10331000206AFDF751F9582300228021206AFDF729
:103320004BF9C02300228121206AFDF745F9FF23D4
:10333000113300220121206AFDF73EF9FF230133FA
:1033400000228221206AFDF737F9002010BD00001D
:103350000C0A00200C080020005C0040FF30CA0965
:10336000FF3049060230490E1C23006A59430818F1
:10337000002A01D0203001E0FF300130807A704710
:1033800010B5FF301C46FF3002301346006A22465B
:10339000FDF762FA002010BDFF3010B5FF3002309B
:1033A000006AFDF7ABFB002010BD70B5002204469B
:1033B00040231146FFF7E4FF4025FF20113005515F
:1033C0002B46002280212046FFF7DAFFFF20012153
:1033D000FD3025620155E01DFF30FA30816900297A
:1033E00004D040692179426820469047002070BD92
:1033F000FF30E130417F01770020704710B5FF2199
:10340000FD31095C032906D1852189000958C96964
:10341000002900D08847002010BD017400207047AB
:10342000FF3010B5FF300230006AFDF72DFE00209E
:1034300010BD70B504464120C0002018054600F0BC
:103440004AF82146FF3181310122084680304A671F
:10345000C2898A67007AC106C90E0AD001290DD037
:10346000022910D0C109C901204600F011F800203E
:1034700070BD2946204600F098F8F8E72946204616
:1034800000F07EF9F3E72946204600F004F9EEE764
:10349000FF3010B5FF300230006AFDF7CBFB002093
:1034A00010BDFF3010B5FF300230006AFDF70DFE91
:1034B000002010BDFF30E130017F4177042101770A
:1034C00000207047FF3010B5FF300230006AFDF772
:1034D000FBFB002010BD0A7802704A784270CB785E
:1034E0008A781B02D21842804B790A791B02D218C3
:1034F00082808A79C97909025118C18070470246D1
:103500000020002904D0FF32FF320232516170479F
:103510000220704710B58522920012580224002A1A
:1035200004D012689047002800D10024204610BD26
:1035300070B50E468978194D04462970012904D9C1
:1035400031462046FFF7C6FC70BD2046FF30E13013
:10355000027F022A15D0032AF2D1002917D0606811
:1035600088420AD0C1B22046FFF79CFC29786160EE
:103570002046FFF7CFFF0228E2D02046FFF7DEFC0F
:1035800070BD0029F9D0032261600277F0E70222C2
:10359000027720466160FFF785FCEEE7000000201F
:1035A00010B5FFF77EFF002010BDF8B50022009295
:1035B000C61DFF364C781746FA3632460225203AA9
:1035C000230000F017F90A3C55414F410906412BF1
:1035D0002841FFF725FD5CE004468888002818D1C3
:1035E000C888002815D1887817464606107F760EC1
:1035F00003280ED0BE7731462046FFF711FF204644
:10360000FFF79CFC002E01D03D7742E00120387787
:103610003FE0204618E0FFF78BFF3AE0CB88012B14
:1036200012D1127F022A02D0032A0DD104E0012216
:1036300001460831876012E00122011D0FE0127F70
:10364000022A04D0032A02D0FFF744FC21E0C7601D
:103650007168002900D0C560014602220C31FFF7D5
:103660005FFC16E004464888012812D1706009E02A
:103670000446107F022801D00328CAD148880128B7
:1036800007D1776070698268204690472046FFF72F
:1036900055FC0098F8BDF8B504460D462878E61D9F
:1036A0004006FF3600270979800FFA36012809D035
:1036B0006A7830462038002A38D0012A1ED0032AE2
:1036C0003DD106E070692946826820469047002077
:1036D000F8BD007F022817D003282CD16888002865
:1036E00006D1002904D0802902D02046FFF7D0FE61
:1036F0007069294682682046904713E0007F0228BF
:1037000002D0032817D104E0002918D080291AD14B
:1037100015E06888002812D1480603D02046FFF73C
:103720002AFDE5E72046FFF709FC08E0007F0228B4
:1037300007D003280BD029462046FFF7CBFB38469D
:10374000F8BD4806FBD02046FFF7A2FEF7E7C80900
:1037500004D04806400D0519143504E04806400D14
:103760000519FF3505352046FFF7F8FD002800D084
:1037700001202860022229462046FFF7D1FBDEE720
:1037800070B50446FF30E130007F0D4603280FD1AD
:10379000287901280CD885208000005982682046AD
:1037A0009047E888002806D12046FFF7C7FB02E0D3
:1037B0002046FFF78FFB002070BD70470048704720
:1037C000EC05002010B50248FDF744FB10BD0000D9
:1037D0000C0800201CB51346491E01910090044AB4
:1037E0006946184600F022F8009A002111701CBDAD
:1037F0004B38000830B47446641E2578641CAB4214
:1038000000D21D46635D5B00E31830BC184702E040
:1038100008C8121F08C1002AFAD17047704700205B
:1038200001E001C1121F002AFBD17047F8B516460E
:103830000F460446002503E03946B047641C6D1C62
:1038400020780028F8D12846F8BD4A68002A06D01A
:103850000A68531C0B6010704868401E486070472F
:1038600070B5014680221D48FCF77CFC1B480025F2
:1038700080300570803800F0A3F8184800780028E0
:1038800020D020211548FCF77AFC04000AD0134808
:10389000611C8130FCF792FC2570114C0F4E2546BF
:1038A00020350AE00D4881300570F6E73146206882
:1038B000FCF776FC002806D00834AC42F6D3074863
:1038C00000F010F870BD60680300FFF793FF050576
:1038D000050505040500F2E7F4E70000E802002012
:1038E000F439000800B591B006A240216846FFF700
:1038F00071FF6846FCF74DFC81B26846FCF742FD5B
:1039000011B000BD556E6B6E6F776E20636F6D6D7D
:10391000616E642E0A00000000487047500E0020BF
:1039200004480178012901D000207047002101706E
:1039300001207047BC010020FCF7ECFDFEF7FCFD08
:10394000FEF770FAFEF750FBFEF702FBFEF726FBD0
:10395000FEF778FBFEF792FBFCF778FCFEF7DAFD4A
:103960000548FDF748FFFFF7DBFF0028FBD0FFF716
:10397000D3FFFFF775FFF6E73C0200200F490E4B1F
:103980004A680D2804D0082806D07F2804D000E01B
:103990000A209854521C02E0002A03D0521E4A60AA
:1039A000FF2A01D00A2806D19A180020203AD077A1
:1039B0004860012008707047500E0020BC010020B4
:1039C00070B50546044603E0FCF7C6FB2070641C96
:1039D00020780028F8D1284670BD000000000000C3
:1039E00000000102030406070809000000000102AC
:1039F000030400008C3D000800000000783D000832
:103A000001000000843D0008020000007C3D000829
:103A100003000000210023002500270029002C00BE
:103A20002E003100340037003A003E0041004500CE
:103A300049004E00520057005C00620068006E00B2
:103A400075007B0083008B0093009C00A500AF00F5
:103A5000B900C400D000DC00E900F7000601150140
:103A6000260137014A015D01720188019F01B801F9
:103A7000D201EE010B022A024B026E029302BA023D
:103A8000E40210033F037003A403DC03170455048E
:103A90009704DD0427057505C80520067D06E006A8
:103AA0004907B8072D08A9082D09B9094D0AEA0ADE
:103AB000900B400CFA0CC00D910E6F0F5A10531161
:103AC0005B1272139A14D41520178018F519801BF5
:103AD000231DDE1EB420A622B524E4263429A72BFC
:103AE000402E00316609430611004203041E2100E6
:103AF0004203041441004203040A810072030428B3
:103B000001010200040A01027203040A0104920383
:103B1000041401089203040AF10F52030414010073
:103B20009203040AF10FC203043C0100720304145F
:103B3000F10F7203040A010042030414110022036E
:103B4000040A21000203041E310042030414410050
:103B50005203040A61007203041E8100520304141C
:103B6000B1002203040A01010203047801024203A6
:103B7000041E01034203041401047203040A010633
:103B80000200042801087203040A010B9203040ACC
:103B900001009203041411005203040A210092034D
:103BA00004144100C203040A81007203043C0101B1
:103BB0007203041401026203040A010442030414A0
:103BC0000108B203040AF10F7203041E01009203FC
:103BD0000414F10FB203040A0100C203041EF10F22
:103BE000B203041401004203040A11000200046439
:103BF00021007203040A31007203040A4100920397
:103C0000041E61002203041E81007203041EB10021
:103C10009203041E0101720304140102C203040A88
:103C200001034203041401049203040A010672030F
:103C3000041E010872030414010B7203040A01003C
:103C40009203041E11002203041E21007203041EAD
:103C500041009203041E8100720304140101C20397
:103C6000040A01024203041401047203040A010855
:103C7000C203043CF10FC203043C0100B203041E62
:103C8000F10F920304140100B203040AF10F92032E
:103C9000043C01000200042811009203040A2100E0
:103CA000E203040A3100E203043C410092030414DD
:103CB00061009203040A810092030414B100C2035C
:103CC000040A0101C203043C0102020004280103AA
:103CD000C203040A01040204040A0106E203043CCC
:103CE0000108E2030428010B7203040A0100C20365
:103CF000040A1100C203043C2100B203041E410067
:103D00009203041481007203040A01017203043C4B
:103D100001027203041401049203040A01087203ED
:103D20000414F10F7203040A01007203043CF10F42
:103D3000C203041E0100E203041EF10FE203043C6F
:103D400001007203041E11000204041E210002047B
:103D5000043C3100E203041E4100C203041E610062
:103D6000B203043C8100C203041EB100E203041448
:103D70000101C203040A0F0052554E00424545504E
:103D80000000000053544F50000000004C495354B1
:103D900000000000B43D000800000020C401000045
:103DA000F4010008903E0008C40100208C110000BE
:103DB0001E38000881130A0632023340011409023A
:103DC0004313020125C03209041B01020B13052411
:103DD000161001052401100901042402020524061D
:103DE00017010705820308151009040133020A1D93
:103DF00007050102432C070581070938442A4007BB
:103E00002A8107112B0907440A2204440A16FF4499
:103E100013FD2C1B08670413FD2D42081AA30C1A6E
:103E200015041A3304C11AE5101AD9041AF1046AE8
:103E3000CD1CC3127A5B48010819DF39085A1008F3
:103E40005A200842805A04205A1430190829105A5E
:103E5000F43D132D031B0829041A25041A5D04815F
:103E600013752F1B08A5041AB1041AD1041AFD04F6
:103E70001A55041A81041E0403090412DF130202F6
:103E80001640830440575D020102035041000000C8
:04000005080000C12E
:00000001FF
