:020000040800F2
:1000000008040020D5000008FB000008FD000008DF
:1000100000000000000000000000000000000000E0
:10002000000000000000000000000000FF000008C9
:1000300000000000000000000101000803010008AA
:100040000501000800000000050100080501000886
:100050000501000805010008050100080501000868
:100060000000000005010008050100080501000866
:100070000501000805010008050100080000000056
:100080000501000800000000000000000501000854
:100090000000000005010008050100080501000836
:1000A0000000000005010008000000000501000834
:1000B0000501000800000000000000000501000824
:1000C0000348854600F06EF8004800472506000802
:1000D000080400200C4880F308880C480168090EC9
:1000E0000B4A914205D10B480B4901600B480C4962
:1000F00001600C4880470C480047FEE7FEE7FEE73A
:10010000FEE7FEE7FEE70000080400200400000010
:100110001F00000018100240010000000000014014
:100120000000000085050008C100000830B50B463E
:10013000014600202022012409E00D46D5409D42C1
:1001400005D31D469540491B254695404019154647
:10015000521E002DF1DC30BD70B50024254600286C
:1001600001DA01244042002901DA01254942FFF762
:10017000DDFFAC4200D04042002C00D0494270BDAF
:100180000549064A08685043054A80180860400837
:100190007047014908607047000000206D4EC6415D
:1001A00039300000064C0125064E05E0E36807CC17
:1001B0002B430C3C98471034B442F7D3FFF784FF2D
:1001C00070060008900600083021484300E000BF98
:1001D0000146401E0029FAD170470000AE48406930
:1001E000012149040843AC4948610846406901219E
:1001F00089040843A84948610846406901218905E6
:100200000843A54948610920C00600680321890305
:1002100088430921C906086008460068012189034E
:1002200008430921C90608600846406880218843C0
:100230000921C9064860084680680321890388436C
:100240000921C9068860084680680121890308439E
:100250000921C90688600846C068032189038843CC
:100260000921C906C8608D4800680C2188438B4964
:100270000860084600680421084388490860084669
:1002800040680221884385494860084680680C21FF
:1002900088438249886008468068042108437F4972
:1002A00088600846C0680C2188437C49C8600920E2
:1002B000C00600680C2188430921C9060860084669
:1002C0000068042108430921C906086008464068FF
:1002D000022188430921C9064860084680680C212C
:1002E00088430921C90688600846806804210843BC
:1002F0000921C90688600846C0680C218843092185
:10030000C906C860664800680C21884364490860D3
:1003100008460068042108436149086008464068AF
:10032000022188435E494860084680680C21884362
:100330005B49886008468068042108435849886002
:100340000846C0680C2188435549C8600920C0068A
:1003500000680321890288430921C906086008460C
:1003600000680121890208430921C906086008467E
:100370004068202188430921C906486008468068F2
:100380000321890288430921C906886008468068DC
:100390000121890208430921C90688600846C0680E
:1003A0000321890288430921C906C8603C480068C6
:1003B000800880003A490860084600680121084327
:1003C00037490860084640684008400048600846D1
:1003D00080688008800088600846806801210843A2
:1003E0002F4988600846C06880088000C8600920DE
:1003F000C0060068800880000921C9060860084618
:100400000068012108430921C906086008464068C0
:100410004008400048600846806880088000886086
:1004200008468068012108430921C90688600846FA
:10043000C06880088000C86008460068032109027F
:1004400088430921C906086008460068FF21013178
:1004500008430921C90608600846406810218843FE
:100460000921C906486008468068032109028843BB
:100470000921C906886008468068FF2101310843C8
:100480000921C90688600846C0680321090288431B
:100490000921C906C86070470010024000040048E6
:1004A0000014004808210140002901D0002200E08A
:1004B0001022102191400922D206916104210140AD
:1004C000002901D0002200E01022012191400922E0
:1004D000D206916102210140002901D0002200E0F2
:1004E000102201219140074A9161C107C90F0029DB
:1004F00001D0002200E01022202191400922D206E2
:10050000916170470014004808210140002901D082
:10051000002200E0102202219140134A916104213F
:100520000140002901D0002200E010220221914068
:100530000922D206916102210140002901D0002246
:1005400000E0102202219140084A9161C107C90FC1
:10055000002901D0002200E01022802191400922D0
:10056000D206916170470000001400480004004862
:1005700010B504460B462046FFF7C6FF1846FFF7A6
:1005800091FF10BD1C480068012108431A4908600A
:1005900008464068194908401749486008460068FD
:1005A0001749084014490860084600680121890479
:1005B000884311490860084640683F210904884380
:1005C0000D4948600846C06A00090001C862084633
:1005D000006BFF2194318843074908630846006B8C
:1005E00080210843044908630846406B40084000E6
:1005F0004863002088607047001002400CB8FF0874
:10060000FFFFF6FE02E008C8121F08C1002AFAD157
:1006100070477047002001E001C1121F002AFBD182
:1006200070470000FFF7DAFD01241DE0FFF7A8FD89
:1006300006460F21FFF790FDCDB229462046FFF771
:1006400097FF0A48FFF7C0FD6006040E002C01D199
:10065000012000E000200F2C01DD012100E000213D
:100660000843002800D00124E0E700001027000024
:1006700090060008000000200400000004060008A6
:10068000940600080400002004040000140600087A
:040690000000000066
:04000005080000C12E
:00000001FF
